{
  "contractName": "PropertyLedgerContract",
  "abi": [
    {
      "anonymous": false,
      "inputs": [
        {
          "indexed": true,
          "internalType": "address",
          "name": "previousOwner",
          "type": "address"
        },
        {
          "indexed": true,
          "internalType": "address",
          "name": "newOwner",
          "type": "address"
        }
      ],
      "name": "OwnershipTransferred",
      "type": "event"
    },
    {
      "inputs": [],
      "name": "owner",
      "outputs": [
        {
          "internalType": "address",
          "name": "",
          "type": "address"
        }
      ],
      "stateMutability": "view",
      "type": "function",
      "constant": true
    },
    {
      "inputs": [],
      "name": "renounceOwnership",
      "outputs": [],
      "stateMutability": "nonpayable",
      "type": "function"
    },
    {
      "inputs": [
        {
          "internalType": "address",
          "name": "newOwner",
          "type": "address"
        }
      ],
      "name": "transferOwnership",
      "outputs": [],
      "stateMutability": "nonpayable",
      "type": "function"
    },
    {
      "inputs": [
        {
          "internalType": "string",
          "name": "_propertyAddress",
          "type": "string"
        },
        {
          "internalType": "string",
          "name": "_ownerName",
          "type": "string"
        },
        {
          "internalType": "string",
          "name": "_soldDate",
          "type": "string"
        }
      ],
      "name": "recordPropertyPurchase",
      "outputs": [
        {
          "internalType": "uint256",
          "name": "",
          "type": "uint256"
        }
      ],
      "stateMutability": "nonpayable",
      "type": "function"
    },
    {
      "inputs": [
        {
          "internalType": "uint256",
          "name": "propertyRecordId",
          "type": "uint256"
        }
      ],
      "name": "getPropertyRecord",
      "outputs": [
        {
          "internalType": "string",
          "name": "_propertyAddress",
          "type": "string"
        },
        {
          "internalType": "string",
          "name": "_ownerName",
          "type": "string"
        },
        {
          "internalType": "string",
          "name": "_soldDate",
          "type": "string"
        },
        {
          "internalType": "address",
          "name": "_recordedBy",
          "type": "address"
        }
      ],
      "stateMutability": "view",
      "type": "function",
      "constant": true
    }
  ],
  "bytecode": "0x608060405234801561001057600080fd5b5061002d61002261003260201b60201c565b61003a60201b60201c565b6100fe565b600033905090565b60008060009054906101000a900473ffffffffffffffffffffffffffffffffffffffff169050816000806101000a81548173ffffffffffffffffffffffffffffffffffffffff021916908373ffffffffffffffffffffffffffffffffffffffff1602179055508173ffffffffffffffffffffffffffffffffffffffff168173ffffffffffffffffffffffffffffffffffffffff167f8be0079c531659141344cd1fd0a4f28419497f9722a3daafe3b4186f6b6457e060405160405180910390a35050565b610dab8061010d6000396000f3fe608060405234801561001057600080fd5b50600436106100575760003560e01c80632d49b5171461005c578063658750f61461008f578063715018a6146100bf5780638da5cb5b146100c9578063f2fde38b146100e7575b600080fd5b6100766004803603810190610071919061083b565b610103565b6040516100869493929190610942565b60405180910390f35b6100a960048036038101906100a49190610ad1565b610388565b6040516100b69190610b87565b60405180910390f35b6100c76104b5565b005b6100d161053d565b6040516100de9190610ba2565b60405180910390f35b61010160048036038101906100fc9190610be9565b610566565b005b6060806060600080851161011657600080fd5b610120600161065e565b85111561012c57600080fd5b6000600260008781526020019081526020016000206040518060a00160405290816000820154815260200160018201805461016690610c45565b80601f016020809104026020016040519081016040528092919081815260200182805461019290610c45565b80156101df5780601f106101b4576101008083540402835291602001916101df565b820191906000526020600020905b8154815290600101906020018083116101c257829003601f168201915b505050505081526020016002820180546101f890610c45565b80601f016020809104026020016040519081016040528092919081815260200182805461022490610c45565b80156102715780601f1061024657610100808354040283529160200191610271565b820191906000526020600020905b81548152906001019060200180831161025457829003601f168201915b5050505050815260200160038201805461028a90610c45565b80601f01602080910402602001604051908101604052809291908181526020018280546102b690610c45565b80156103035780601f106102d857610100808354040283529160200191610303565b820191906000526020600020905b8154815290600101906020018083116102e657829003601f168201915b505050505081526020016004820160009054906101000a900473ffffffffffffffffffffffffffffffffffffffff1673ffffffffffffffffffffffffffffffffffffffff1673ffffffffffffffffffffffffffffffffffffffff1681525050905080602001519450806040015193508060600151925080608001519150509193509193565b6000610394600161066c565b60006103a0600161065e565b905060006040518060a001604052808381526020018781526020018681526020018581526020016103cf610682565b73ffffffffffffffffffffffffffffffffffffffff168152509050806002600084815260200190815260200160002060008201518160000155602082015181600101908051906020019061042492919061074e565b50604082015181600201908051906020019061044192919061074e565b50606082015181600301908051906020019061045e92919061074e565b5060808201518160040160006101000a81548173ffffffffffffffffffffffffffffffffffffffff021916908373ffffffffffffffffffffffffffffffffffffffff16021790555090505081925050509392505050565b6104bd610682565b73ffffffffffffffffffffffffffffffffffffffff166104db61053d565b73ffffffffffffffffffffffffffffffffffffffff1614610531576040517f08c379a000000000000000000000000000000000000000000000000000000000815260040161052890610cc3565b60405180910390fd5b61053b600061068a565b565b60008060009054906101000a900473ffffffffffffffffffffffffffffffffffffffff16905090565b61056e610682565b73ffffffffffffffffffffffffffffffffffffffff1661058c61053d565b73ffffffffffffffffffffffffffffffffffffffff16146105e2576040517f08c379a00000000000000000000000000000000000000000000000000000000081526004016105d990610cc3565b60405180910390fd5b600073ffffffffffffffffffffffffffffffffffffffff168173ffffffffffffffffffffffffffffffffffffffff161415610652576040517f08c379a000000000000000000000000000000000000000000000000000000000815260040161064990610d55565b60405180910390fd5b61065b8161068a565b50565b600081600001549050919050565b6001816000016000828254019250508190555050565b600033905090565b60008060009054906101000a900473ffffffffffffffffffffffffffffffffffffffff169050816000806101000a81548173ffffffffffffffffffffffffffffffffffffffff021916908373ffffffffffffffffffffffffffffffffffffffff1602179055508173ffffffffffffffffffffffffffffffffffffffff168173ffffffffffffffffffffffffffffffffffffffff167f8be0079c531659141344cd1fd0a4f28419497f9722a3daafe3b4186f6b6457e060405160405180910390a35050565b82805461075a90610c45565b90600052602060002090601f01602090048101928261077c57600085556107c3565b82601f1061079557805160ff19168380011785556107c3565b828001600101855582156107c3579182015b828111156107c25782518255916020019190600101906107a7565b5b5090506107d091906107d4565b5090565b5b808211156107ed5760008160009055506001016107d5565b5090565b6000604051905090565b600080fd5b600080fd5b6000819050919050565b61081881610805565b811461082357600080fd5b50565b6000813590506108358161080f565b92915050565b600060208284031215610851576108506107fb565b5b600061085f84828501610826565b91505092915050565b600081519050919050565b600082825260208201905092915050565b60005b838110156108a2578082015181840152602081019050610887565b838111156108b1576000848401525b50505050565b6000601f19601f8301169050919050565b60006108d382610868565b6108dd8185610873565b93506108ed818560208601610884565b6108f6816108b7565b840191505092915050565b600073ffffffffffffffffffffffffffffffffffffffff82169050919050565b600061092c82610901565b9050919050565b61093c81610921565b82525050565b6000608082019050818103600083015261095c81876108c8565b9050818103602083015261097081866108c8565b9050818103604083015261098481856108c8565b90506109936060830184610933565b95945050505050565b600080fd5b600080fd5b7f4e487b7100000000000000000000000000000000000000000000000000000000600052604160045260246000fd5b6109de826108b7565b810181811067ffffffffffffffff821117156109fd576109fc6109a6565b5b80604052505050565b6000610a106107f1565b9050610a1c82826109d5565b919050565b600067ffffffffffffffff821115610a3c57610a3b6109a6565b5b610a45826108b7565b9050602081019050919050565b82818337600083830152505050565b6000610a74610a6f84610a21565b610a06565b905082815260208101848484011115610a9057610a8f6109a1565b5b610a9b848285610a52565b509392505050565b600082601f830112610ab857610ab761099c565b5b8135610ac8848260208601610a61565b91505092915050565b600080600060608486031215610aea57610ae96107fb565b5b600084013567ffffffffffffffff811115610b0857610b07610800565b5b610b1486828701610aa3565b935050602084013567ffffffffffffffff811115610b3557610b34610800565b5b610b4186828701610aa3565b925050604084013567ffffffffffffffff811115610b6257610b61610800565b5b610b6e86828701610aa3565b9150509250925092565b610b8181610805565b82525050565b6000602082019050610b9c6000830184610b78565b92915050565b6000602082019050610bb76000830184610933565b92915050565b610bc681610921565b8114610bd157600080fd5b50565b600081359050610be381610bbd565b92915050565b600060208284031215610bff57610bfe6107fb565b5b6000610c0d84828501610bd4565b91505092915050565b7f4e487b7100000000000000000000000000000000000000000000000000000000600052602260045260246000fd5b60006002820490506001821680610c5d57607f821691505b60208210811415610c7157610c70610c16565b5b50919050565b7f4f776e61626c653a2063616c6c6572206973206e6f7420746865206f776e6572600082015250565b6000610cad602083610873565b9150610cb882610c77565b602082019050919050565b60006020820190508181036000830152610cdc81610ca0565b9050919050565b7f4f776e61626c653a206e6577206f776e657220697320746865207a65726f206160008201527f6464726573730000000000000000000000000000000000000000000000000000602082015250565b6000610d3f602683610873565b9150610d4a82610ce3565b604082019050919050565b60006020820190508181036000830152610d6e81610d32565b905091905056fea264697066735822122075a5bd75a18ecae1cd0bb88e7e6b2abd4d443b11fb873e1fde802c639d77e66f64736f6c634300080b0033",
  "immutableReferences": {},
  "source": "// SPDX-License-Identifier: UNLICENSED\r\npragma solidity ^0.8.0 <0.9.0;\r\n\r\nimport \"@openzeppelin/contracts/access/Ownable.sol\";\r\nimport \"@openzeppelin/contracts/utils/Counters.sol\";\r\n\r\ncontract PropertyLedgerContract is Ownable {\r\n    using Counters for Counters.Counter;\r\n    Counters.Counter private _propertyRecordIds;\r\n\r\n    struct PropertyRecord\r\n    {\r\n        uint256 id;\r\n        string propertyAddress;\r\n        string ownerName;\r\n        string soldDate;\r\n        address recordedBy;\r\n    }\r\n\r\n    mapping (uint256 => PropertyRecord) propertyRecordIdMapping;\r\n\r\n    function recordPropertyPurchase(string memory _propertyAddress, string memory _ownerName, string memory _soldDate) public returns (uint256) {\r\n        _propertyRecordIds.increment();\r\n        uint256 _id = _propertyRecordIds.current();\r\n\r\n        PropertyRecord memory pr = PropertyRecord ({\r\n            id: _id,\r\n            propertyAddress: _propertyAddress,\r\n            ownerName: _ownerName,\r\n            soldDate: _soldDate,\r\n            recordedBy: _msgSender()\r\n        });\r\n\r\n        propertyRecordIdMapping[_id] = pr;\r\n\r\n        return _id;\r\n    }\r\n\r\n    function getPropertyRecord(uint propertyRecordId) public view returns (string memory _propertyAddress, string memory _ownerName, string memory _soldDate, address _recordedBy) {\r\n        require (propertyRecordId > 0);\r\n        require (propertyRecordId <= _propertyRecordIds.current());\r\n\r\n        PropertyRecord memory pr = propertyRecordIdMapping[propertyRecordId];\r\n        _propertyAddress = pr.propertyAddress;\r\n        _ownerName = pr.ownerName;\r\n        _soldDate = pr.soldDate;\r\n        _recordedBy = pr.recordedBy;\r\n    }\r\n}",
  "sourcePath": "E:\\GIT\\hackathon-tutorial\\contracts\\PropertyLedgerContract.sol",
  "compiler": {
    "name": "solc",
    "version": "0.8.11+commit.d7f03943.Emscripten.clang"
  },
  "schemaVersion": "3.4.4",
  "updatedAt": "2022-02-10T01:28:39.590Z",
  "networkType": "ethereum",
  "devdoc": {
    "kind": "dev",
    "methods": {
      "owner()": {
        "details": "Returns the address of the current owner."
      },
      "renounceOwnership()": {
        "details": "Leaves the contract without owner. It will not be possible to call `onlyOwner` functions anymore. Can only be called by the current owner. NOTE: Renouncing ownership will leave the contract without an owner, thereby removing any functionality that is only available to the owner."
      },
      "transferOwnership(address)": {
        "details": "Transfers ownership of the contract to a new account (`newOwner`). Can only be called by the current owner."
      }
    },
    "version": 1
  },
  "userdoc": {
    "kind": "user",
    "methods": {},
    "version": 1
  }
}